{"abi":[{"type":"constructor","inputs":[],"stateMutability":"nonpayable"},{"type":"function","name":"changeOwner","inputs":[{"name":"newOwner","type":"address","internalType":"address"}],"outputs":[],"stateMutability":"nonpayable"},{"type":"function","name":"getOwner","inputs":[],"outputs":[{"name":"","type":"address","internalType":"address"}],"stateMutability":"view"},{"type":"event","name":"OwnerSet","inputs":[{"name":"oldOwner","type":"address","indexed":true,"internalType":"address"},{"name":"newOwner","type":"address","indexed":true,"internalType":"address"}],"anonymous":false}],"bytecode":{"object":"0x6080604052348015600e575f5ffd5b50335f5f6101000a81548173ffffffffffffffffffffffffffffffffffffffff021916908373ffffffffffffffffffffffffffffffffffffffff1602179055505f5f9054906101000a900473ffffffffffffffffffffffffffffffffffffffff1673ffffffffffffffffffffffffffffffffffffffff165f73ffffffffffffffffffffffffffffffffffffffff167f342827c97908e5e2f71151c08502a66d44b6f758e3ac2f1de95f02eb95f0a73560405160405180910390a361043e806100d55f395ff3fe608060405234801561000f575f5ffd5b5060043610610034575f3560e01c8063893d20e814610038578063a6f9dae114610056575b5f5ffd5b610040610072565b60405161004d9190610290565b60405180910390f35b610070600480360381019061006b91906102d7565b610099565b005b5f5f5f9054906101000a900473ffffffffffffffffffffffffffffffffffffffff16905090565b5f5f9054906101000a900473ffffffffffffffffffffffffffffffffffffffff1673ffffffffffffffffffffffffffffffffffffffff163373ffffffffffffffffffffffffffffffffffffffff1614610127576040517f08c379a000000000000000000000000000000000000000000000000000000000815260040161011e9061035c565b60405180910390fd5b5f73ffffffffffffffffffffffffffffffffffffffff168173ffffffffffffffffffffffffffffffffffffffff1603610195576040517f08c379a000000000000000000000000000000000000000000000000000000000815260040161018c906103ea565b60405180910390fd5b8073ffffffffffffffffffffffffffffffffffffffff165f5f9054906101000a900473ffffffffffffffffffffffffffffffffffffffff1673ffffffffffffffffffffffffffffffffffffffff167f342827c97908e5e2f71151c08502a66d44b6f758e3ac2f1de95f02eb95f0a73560405160405180910390a3805f5f6101000a81548173ffffffffffffffffffffffffffffffffffffffff021916908373ffffffffffffffffffffffffffffffffffffffff16021790555050565b5f73ffffffffffffffffffffffffffffffffffffffff82169050919050565b5f61027a82610251565b9050919050565b61028a81610270565b82525050565b5f6020820190506102a35f830184610281565b92915050565b5f5ffd5b6102b681610270565b81146102c0575f5ffd5b50565b5f813590506102d1816102ad565b92915050565b5f602082840312156102ec576102eb6102a9565b5b5f6102f9848285016102c3565b91505092915050565b5f82825260208201905092915050565b7f43616c6c6572206973206e6f74206f776e6572000000000000000000000000005f82015250565b5f610346601383610302565b915061035182610312565b602082019050919050565b5f6020820190508181035f8301526103738161033a565b9050919050565b7f4e6577206f776e65722073686f756c64206e6f7420626520746865207a65726f5f8201527f2061646472657373000000000000000000000000000000000000000000000000602082015250565b5f6103d4602883610302565b91506103df8261037a565b604082019050919050565b5f6020820190508181035f830152610401816103c8565b905091905056fea264697066735822122085dbc0101bf64e618cd2ab9f616a13367ecb99a2d0a1102903e71e103170763a64736f6c63430008210033","linkReferences":{}},"methodIdentifiers":{"changeOwner(address)":"a6f9dae1","getOwner()":"893d20e8"},"id":16}